:020000041000EA
:1000000000B5324B212058609868022188439860DF
:10001000D860186158612E4B002199600221596106
:100020000121F02299502B49196001219960352056
:1000300000F044F80222904214D00621196600F024
:1000400034F8196E01211966002018661A6600F04E
:100050002CF8196E196E196E052000F02FF8012189
:100060000842F9D1002199601B49196000215960AB
:100070001A491B48016001219960EB211966A021F2
:10008000196600F012F800219960164914480160C1
:100090000121996001BC002800D000471248134993
:1000A000086003C880F30888084703B5996A0420EC
:1000B0000142FBD001200142F8D103BD02B5186610
:1000C0001866FFF7F2FF186E186E02BD00000240BE
:1000D000000000180000070000035F00212200005C
:1000E000F4000018222000A00001001008ED00E03C
:1000F00000000000000000000000000074B24E7A12
:1001000000200420F7010010CB010010CD010010E9
:10011000C9010010C9010010C9010010C901001077
:10012000C9010010C9010010C9010010CF01001061
:10013000C9010010C9010010D1010010D301001045
:10014000C1010010C1010010C1010010C101001067
:10015000C1010010C1010010C1010010C101001057
:10016000C1010010C1010010C1010010C101001047
:10017000C1010010C1010010C1010010C101001037
:10018000C1010010C1010010C1010010C101001027
:10019000C1010010C1010010C1010010C101001017
:1001A000C1010010C1010010C1010010C101001007
:1001B000C1010010C1010010C1010010C1010010F7
:1001C000EFF30580103800BE00BE00BE00BE00BECA
:1001D00000BE00BEF2EB8871B0E60A10D8E60A1045
:1001E0003802001090A31AE71E481F49086006C88D
:1001F00081F3088810471D480068002801D019487D
:10020000F3E70DA40ECC002902D000F012F8F9E7B4
:100210001749184A002000E001C19142FCD116495B
:100220008847164988471649884700BEFDE701C937
:1002300001C29A42FBD37047D8E60A10C0000020E2
:100240008009002098EF0A1000000420000004201C
:1002500098EF0A1000100420001004200000000095
:10026000704700000000000008ED00E0000000D032
:100270008009002014AB0120D96B00104505001047
:10028000996B0010F8B5C0460448054B10B5834281
:1002900003D0044B002B00D0984710BD80090020EC
:1002A000800900200000000006480749091A8B1049
:1002B000C90FC91810B5491003D0044B002B00D04A
:1002C000984710BD80090020800900200000000030
:1002D00010B5074C2378002B09D1FFF7D5FF054B4C
:1002E000002B02D0044800E000BF0123237010BDA2
:1002F000000D0020000000004CCE0710054B10B58B
:10030000002B03D00449054800E000BFFFF7CCFFF5
:1003100010BDC04600000000040D00204CCE0710A8
:10032000F0B5D6464F464646604D0C002A78C0B51B
:10033000002A41D1D02380211B065D6809010D40B0
:100340006942694180205E68400106407042704108
:100350005F68C9B2BC4680278A466146BF010F402C
:1003600079427941C9B289465149C0B28846097873
:100370008C46002D0FD152464E4B1A704A464E4BBA
:1003800018704E4B1A706346002B22D0E0BCBA4660
:10039000B146A846F0BD002EEDD0002FEBD0454968
:1003A0000A7045490A7045490A706246002A36D1EA
:1003B0002023E254E262E9E7414806F05BFE0023B5
:1003C0003B4A2B7013703F4A13602022A354E36210
:1003D000DCE73D4806F04EFE43461B78002BD5D1A6
:1003E000D02340221B069A61042100220D2002F036
:1003F000CBFB002204210C2002F0C6FB00220421CA
:100400000B2002F0C1FB012342461370002D3CD1AA
:100410000A222C4B1A602D4806F02CFEB6E740222B
:100420002B485A6106F026FE264E33680A2B29D047
:10043000092B36D01B2B25D020230122802100251B
:10044000E254244AD433C903E562D1508021C90261
:10045000D1508021C901D1500D200122042102F088
:1004600093FB012204210C2002F08EFB01220421C7
:100470000B2002F089FB434617481D70356006F0DB
:10048000F9FD83E7154A1360D6E7002E05D0002F4B
:10049000C1D11B220B4B1A60BDE70922094B1A6020
:1004A000B9E70B220D4B1A60C6E7C04609AB012025
:1004B00006AB012010AB01200FAB01200EAB0120D9
:1004C00050CE07104C1401205CCE071068CE0710E8
:1004D00078CE07100040014088CE0710A0AA012066
:1004E00010B5044C13000A000100200000F02EFBA0
:1004F00010BDC046C4AA012010B50B2804D00C289A
:100500000AD00D2810D010BD0022042102F03CFBBF
:100510000122094B1A70F6E70022042102F034FB95
:100520000122064B1A70EEE70022042102F02CFB98
:100530000122034B1A70E6E710AB01200FAB01203C
:100540000EAB012070B5FA2484B0E40006F0B8FCCC
:10055000200003F06BFA694806F004FD062002F063
:10056000A7FBD0234022E1211B065A6249025A61AF
:10057000634803F053FB0221042002F0D7FA022162
:10058000052002F0D3FA5F4800F0A8FA5E4E02ADF3
:10059000300001F09BFB19215C4801F0B9FC3100EF
:1005A000280001F04FFCEB88A34202D0002B00D0C2
:1005B00097E0574806F05EFD00220125554B1A7062
:1005C000554B1D7023F00AF8A020F021400018F0D0
:1005D00067FB0400122118F0D7FF20004F4918F0E4
:1005E000A3FF00230093962300221B0220004C4906
:1005F00018F058FE1FF0C2FF0400022120F04EF850
:100600002000484920F052F80D2002F051FBD02480
:10061000802324069B0100220021A3620D2002F00A
:100620009FFA0C2002F044FB80235B010022002192
:10063000A3620C2002F094FA0B2002F039FB802315
:100640001B01002200210B20A36202F089FA364B25
:10065000012204210D2002F0C3FA012204210C2002
:1006600002F092FA012204210B2002F08DFA2F48A9
:1006700006F078FC00F092FF002D2BD103F080FAF9
:10068000002921D0FA220023920003F09DFE0500EC
:1006900010E0FA220023920003F096FE0400A54227
:1006A00003D2601B31F034FA250029F0E3FA0A2066
:1006B00003F0BCF903F064FA0029EAD1FA218900B9
:1006C00003F044FE0400EAE7FA21890003F03EFE4D
:1006D0000500EFE7164806F0CDFC164806F016FEBA
:1006E000CCE7154806F0C6FC0123144A0025137018
:1006F000134A1370074A137062E7C04694CE07107E
:1007000000800340C4AA0120E4AA01200000305068
:10071000B0CE07100CAB012007AB0120E1040010A4
:100720005014012021030010F904001024CF0710F9
:1007300068CF07106D230010ECCE07100AAB012024
:100740000BAB012030B5D02480252406ED0183B009
:10075000A5610A2003F06AF96561782003F066F963
:100760000021EF2000F0A8FA0121032000F0A4FAF4
:100770000121802000F0A0FA0121022000F09CFA63
:100780000021CF2000F098FA0121002000F094FA17
:100790000121C12000F090FA0121302000F08CFAF4
:1007A0000021ED2000F088FA0121642000F084FA95
:1007B0000121032000F080FA0121122000F07CFAD0
:1007C0000121812000F078FA0021E82000F074FA7D
:1007D0000121852000F070FA0121002000F06CFA60
:1007E0000121782000F068FA0021CB2000F064FAA3
:1007F0000121392000F060FA01212C2000F05CFA80
:100800000121002000F058FA0121342000F054FAB0
:100810000121022000F050FA0021F72000F04CFAEC
:100820000121202000F048FA0021EA2000F044FADB
:100830000121002000F040FA0121002000F03CFAE4
:100840000021C02000F038FA0121232000F034FA02
:100850000021C12000F030FA0121102000F02CFA14
:100860000021C52000F028FA01213E2000F024FAE2
:100870000121282000F020FA0021C72000F01CFAF6
:100880000121862000F018FA0021362000F014FA29
:100890000121E82000F010FA00213A2000F00CFAC3
:1008A0000121552000F008FA0021B12000F004FADF
:1008B0000121002000F000FA0121132000F0FCF9D2
:1008C0000021B62000F0F8F90121082000F0F4F929
:1008D0000121822000F0F0F90121272000F0ECF93D
:1008E0000021F22000F0E8F90121002000F0E4F9F5
:1008F0000021262000F0E0F90121012000F0DCF9C0
:100900000021E02000F0D8F901210F2000F0D4F9F7
:100910000121312000F0D0F901212B2000F0CCF989
:1009200001210C2000F0C8F901210E2000F0C4F9CB
:100930000121082000F0C0F901214E2000F0BCF98F
:100940000121F12000F0B8F90121372000F0B4F9BD
:100950000121072000F0B0F90121102000F0ACF9CE
:100960000121032000F0A8F901210E2000F0A4F9D4
:100970000121092000F0A0F90121002000F09CF9DC
:100980000021E12000F098F90121002000F094F905
:1009900001210E2000F090F90121142000F08CF9C3
:1009A0000121032000F088F90121112000F084F9D1
:1009B0000121072000F080F90121312000F07CF9AD
:1009C0000121C12000F078F90121482000F074F9DC
:1009D0000121082000F070F901210F2000F06CF9CE
:1009E00001210C2000F068F90121312000F064F9A8
:1009F0000121362000F060F901210F2000F05CF9A0
:100A00000021112000F058F9782003F00FF80021A0
:100A1000292000F051F92C4806F0A4FA6B46DD1DA0
:100A2000002300212A202B7000F046F9012100202C
:100A300000F042F90121002000F03EF901210120DF
:100A400000F03AF901213F2000F036F900212B2077
:100A500000F032F90121002000F02EF901210020E0
:100A600000F02AF90121002000F026F90121EF20F1
:100A700000F022F900212C2000F01EF9012000F0E6
:100A8000F7F8012006F016FD104AC3021049134082
:100A90001943A02382010400DB050E48D3181D6012
:100AA0005860962080029860D9600B4B80219C464C
:100AB0004904624413680B42FCD100F0F1F82000B5
:100AC00006F0EEFC03B030BD98CF0710ED7F00FFBD
:100AD0000100080008C003401000005070B519491B
:100AE0000500194806F03EFC0121122002F01EF814
:100AF0000121132002F01AF8112002F0D9F8D024B5
:100B0000802324069B0263620F20636102F0D0F809
:100B100080231B0263620E2002F0CAF88023802625
:100B2000DB016362B600092002F0C2F80022002156
:100B30006662092002F014F828006661FFF702FEE1
:100B400070BDC04600366E0100C00340F0B5D64609
:100B50004F4646469846136894689946C0B5D5688E
:100B600056681B0422041B0C120CD21A2F043304E7
:100B70001B0C3F0CFF1A01322A208A460137002144
:100B8000574300F099F84B4698B20121000A00F053
:100B900093F84B460121D8B200F08EF8A0B20121A3
:100BA000000A00F089F80121E0B200F085F8002188
:100BB0002B2000F081F8B0B20121000A00F07CF88F
:100BC0000121F0B200F078F8A8B20121000A00F08B
:100BD00073F80121E8B200F06FF82C20002100F03A
:100BE0006BF8012000F044F8002F1BD0464602238A
:100BF000FF2404217F00194AF7193588D068034281
:100C0000FCD0280A9060D0680342FCD02540956053
:100C1000D068014203D09068D0680142FBD102360F
:100C2000B742EAD101210D4AD3681942FCD1D368F9
:100C30005B0705D50421094B9A68DA681142FBD19C
:100C40000122064B1A6200F02BF8504618F03EFDC8
:100C5000E0BCBA46B146A846F0BDC04600C003405D
:100C6000014B024A1A607047C4AA01204001F000FB
:100C7000C046C046C046D02380221B061202002870
:100C80000CD19A61C046C046C046D02380221B06C4
:100C900092029A61C046C046C04670475A61F1E769
:100CA000C046C046C046D02380221B0692025A612D
:100CB000C046C046C0467047C046C046C046D02366
:100CC00080221B061202002937D19A61C046C04615
:100CD000C046D02380221B0692029A61C046C046BD
:100CE000C0460221164AD3681942FCD09060D368EE
:100CF0005B0705D50421124B9A68DA681142FBD1D3
:100D000010210F4AD3681942FCD1D3685B0705D57F
:100D100004210B4B9A68DA681142FBD10122084B7F
:100D20001A62C046C046C046D02380221B069202EB
:100D30005A61C046C046C04670475A61C6E7C046C1
:100D400000C00340F0B5924B89B01A78002A00D158
:100D500087E0EFF3108172B68E4A1368002BFCD047
:100D6000BFF35F8F8C4A8D48137804788C48DBB2D0
:100D700005788C48E4B206781078EDB2F6B2002817
:100D800000D0A2E0BFF35F8F0020824A106081F3A1
:100D90001088002B00D078E0002C60D0824C2368B3
:100DA000002B5CD0814806F065F9206814F046FB02
:100DB000071E4BD0206814F05BF900233800236035
:100DC000002D00D1A3E0002E00D081E03CF0E6FD34
:100DD00000220400FF21002025F024FD05AB18703F
:100DE00002040002120E000E5A70987000222000B9
:100DF000059913F0ABFC0222372120000BF058FEBE
:100E00006B4920003CF0D8FD38003CF0C7FD0022C3
:100E100005000021FF2025F005FD0104030206AABC
:100E20001B0E090E10709370517028000022069955
:100E300013F08CFC082321002800112200965B424D
:100E40000DF0D2FF28005B493CF0B6FD5A4C2068FB
:100E500028F0A8FF00235948236006F00BF909B0D9
:100E6000F0BD4D494D480B7804784D48DBB205780C
:100E70004C48E4B206780878EDB2F6B2002800D10A
:100E800087E70A70002B00D186E74D4806F0F2F89C
:100E90004C4B4D4F19684D4B38001A684C4BD2B231
:100EA0001B68C9B2DBB200F02DFF4A4B380019684D
:100EB000494BC9B21A68494BD2B21B689BB200F0C9
:100EC0006FFF474806F0D6F866E70020107059E734
:100ED0003CF064FDFF220400FF21002025F0A2FC6D
:100EE000030407AA1B0E537003021B0E93701070AD
:100EF00007992000002213F029FC200002221E2165
:100F00000BF0D6FD200037493CF056FD9EE73CF043
:100F100045FD002204000021FF2025F083FC03ABE7
:100F2000187002040002120E000E5A709870039995
:100F30002000002213F00AFC0222200037210BF0CF
:100F4000B7FD200028493CF037FD38003CF026FD75
:100F5000002206006421FF2025F064FC0104030246
:100F600004AA1B0E090E1070937051703000049982
:100F7000002213F0EBFB0823210030001122009522
:100F80005B420DF031FF30000A493CF015FD5DE792
:100F900007AB01207C0100D008AB01200CAB012085
:100FA0000BAB01200AAB012038140120D8CF071069
:100FB000F4CF0710ECCF07104414012000D0071025
:100FC000C0CF0710A8AA0120E4AA0120ACAA0120E2
:100FD000B4AA0120A4AA0120B0AA0120B8AA012025
:100FE000CCCF0710F8CF0710E4CF0710F0B5454677
:100FF000DE4657464E46E0B54C4D9FB02B68002B61
:1010000074D04B4F3B68002B70D04A4B98461B68FE
:10101000002B6BD004AC2000474900F013FF63782D
:10102000A678994623780393E3789A462379E4884F
:101030009B46002E61D12B680C36002B64D03F49B3
:10104000320006A805F002FD286806A93CF0B4FCB1
:1010500043461B68002B09D039494A460AA805F0C7
:10106000F5FC43460AA918683CF0A6FC28683968D4
:10107000092E4EDC002807D0002955D00623112266
:101080000093353B0DF0B0FE01232E4D38682978D2
:101090005940002801D008F06BF901222B78534009
:1010A0002B70294D2B68002B0BD0039B27490093F5
:1010B00032004B460EA805F0C9FC28680EA93CF08A
:1010C0007BFC234E3368002B10D06421200003F0FA
:1010D0003DF9204D89B200915B462900524616A881
:1010E00005F0B4FC306816A93CF066FC1FB0F0BCFB
:1010F000BB46B246A946A046F0BD0C2E00DD0C3E14
:101100002B68002B9BD1A3E743461B68002BA3D180
:10111000BAE70028B8D0002906D006231122009390
:101120003F3B0DF061FEAFE7064DB6E734140120FA
:101130003014012040140120E4AA01200CD0071033
:1011400010D00710C00100202C14012018D0071067
:101150002814012028D00710F0B5D6464F46464641
:10116000C0B58AB019F08CF8B74B050018689946DD
:1011700006F084FE002007F06BFFA0210400F0229F
:1011800049000BF001FD002120000EF095FC00222B
:101190000021200013F092F800220021200013F01B
:1011A00097F800220021200013F074F8002200219B
:1011B000200013F079F800220021200013F090F9AC
:1011C00025F0A0FB030409AA1B0E537003021B0E9B
:1011D0001070937020000022099913F0C9F82000C4
:1011E0000022FF2113F0D4F8200018F02FFD002D6D
:1011F00002D0280013F03CFF20003CF0CFFB8C22F3
:1012000005007821782025F00DFB030408AA1B0EA9
:10121000537003021B0E937010700899280000226F
:1012200013F094FA0F22280014210BF041FC874B95
:10123000280019009A463CF0BFFB20003CF0AEFBB2
:10124000834D0600286032228C21002025F0EAFA26
:10125000030407AA1B0E537003021B0E9370107039
:1012600007993000002213F071FA7A4F286839008C
:10127000002213F085FA80212E68002230008900B8
:1012800012F0C2FF802100223000890012F0C6FF58
:10129000286871493CF090FB1F230E225B42092114
:1012A000286852420BF0E0FD20003CF077FB6B4ECB
:1012B0008046306032228C21002025F0B3FA06AB44
:1012C000187002040002120E000E5A7098700699EF
:1012D0004046002213F03AFA39003068002213F039
:1012E0004FFA80213368002218008900984612F0D6
:1012F0008BFF802100224046890012F08FFF51466B
:1013000030683CF059FB20003CF048FB544E8046CE
:10131000306032228C21002025F084FA05AB187051
:1013200002040002120E000E5A7098700599404691
:10133000002213F00BFA39003068002213F020FA73
:101340008021376800223800890012F05DFF80217B
:1013500000223800890012F061FF514630683CF0ED
:101360002BFB0623296830681422009315330DF0F7
:101370003BFD20003CF012FB3A4E050030608C2211
:101380007821782025F04EFA030404AA1B0E53702E
:1013900003021B0E9370107004992800002213F0B2
:1013A000D5F9314F30683900002213F0E9F9CD2228
:1013B0003068F5210BF07CFB2C4D306829003CF0A7
:1013C000FBFA20003CF0EAFA294E804630608C227D
:1013D0007821782025F026FA03AA10700304000271
:1013E0001B0E000E5370907003994046002213F0BC
:1013F000ADF939003068002213F0C2F9DC22306800
:10140000F5210BF055FB290030683CF0D5FAFA21A4
:1014100000224900174828F08FFC174B2100186064
:101420004B46186806F0D6FC200006F071FD00233C
:101430000022200011490AF023FE0AB0E0BCBA469F
:10144000B146A846F0BDC046C8AA012038D0071052
:1014500030140120A04109103CD0071034140120A1
:10146000401401202C140120480C091040D0071012
:1014700028140120ED0F00103C140120011A001067
:10148000F0B583B01F000E00150007F0E1FD040069
:10149000642264210BF078FB3A00290020000BF055
:1014A00007FB20000022002113F01AF82000002280
:1014B000002112F003FF20000022002112F008FF9B
:1014C00020000022002112F0E5FE00220021200071
:1014D00012F0EAFE25F008FA6B466A46187003041B
:1014E00000021B0E000E5370907000992000002225
:1014F00012F03EFF20000022FF2112F049FF0022DF
:101500002000234913F0FCF9200000210EF0D4FA4A
:1015100000220121200013F007FA200039F06EFCB0
:101520000500310039F082FE089B002228000921C5
:101530000BF09AFC2000099909F08CFB0022002393
:10154000200014490AF09CFD134B2100186806F096
:1015500041FC0022FF21FF2025F064F901AB187047
:1015600002040002120E000E5A70987001992000B9
:10157000102212F0DDFF20001022032112F0CEFF16
:1015800010220321200012F0EDFF03B0F0BDC04691
:10159000FF7F0000B11B0010C8AA0120F0B5CE46A5
:1015A000474680B5CB4C8BB02068002806D028F089
:1015B000F9FB0023C848236005F05CFD18F060FECD
:1015C000C64B040018689846002800D1E8E106F0F0
:1015D00055FC002007F03CFDA0210600F022490048
:1015E0000BF0D2FA002130000EF066FA0022002142
:1015F000300012F063FE00220021300012F068FE7D
:1016000000220021300012F045FE002200213000AF
:1016100012F04AFE00220021300012F061FF002289
:101620000021300013F06CF925F06CF9030403AAD3
:101630001B0E537003021B0E1070937030000022BB
:10164000039912F095FE30000022FF2112F0A0FE57
:10165000300018F0FBFA002C02D0200013F0BAFD85
:101660000323002501245B42282230009C4900937B
:1016700001950F33FFF704FF0C23B4223000994982
:1016800001940095FFF7FCFE02230193033B2822FF
:101690003000954900938333FFF7F2FE0323B42211
:1016A00092493000019300947F33FFF7E9FE300048
:1016B00007F0CEFC0400192250210BF065FA052238
:1016C000EB2120000BF0F4F9002120000EF0F4F9DA
:1016D00000220021200012F05BFE002200212000E9
:1016E00012F0FEFE00220021200012F0E7FD002291
:1016F0000021200012F0ECFD00220021200012F059
:10170000C9FD00220021200012F0CEFD784B1B788D
:10171000002B00D1A0E0EFF3108172B6754A136878
:10172000002BFCD0BFF35F8F7348744B1B78057898
:101730007348DBB20778EDB2FFB2BFF35F8F0020D2
:10174000106081F31088002B00D191E02000002D63
:1017500000D1EBE0002F00D02EE13CF01FF9002279
:101760000500FF21002025F05DF807AB187002048A
:101770000002120E000E5A7098700022280007997D
:1017800012F0E4FF0222372128000BF091F95D49A5
:1017900028003CF011F920003CF000F90022040080
:1017A0000021FF2025F03EF80104030208AA1B0EC9
:1017B000090E10709370517008990022200012F0E9
:1017C000C5FF08231122290000975B4220000DF07D
:1017D0000BFB20004C493CF0EFF8300013F0C6FE44
:1017E000071E11D0494B002599462900300013F0FF
:1017F0002BFE041E05D009F05DFA4B461B6898428B
:1018000008D00135AF42F0D10021300013F01CFEAA
:10181000041E0AD0200006F07BFB200009F04AFAE3
:101820003B4B0100180005F025FC434618680028D2
:1018300002D0002106F0AAFC002017F007F80020D3
:101840001EF0F4FE002802D000211EF099FF0BB01C
:10185000C0BCB946B046F0BD274A284B1B78157866
:10186000274ADBB21778EDB2FFB2002B00D06DE74C
:10187000284805F0FFFB20003CF090F8264C02229F
:101880000A2120600BF014F90022C821C820256825
:1018900024F0C8FF04AB187002040002120E000E00
:1018A0005A70987000222800049912F04FFF2068A7
:1018B0001A493CF081F81A4C2368002B00D08CE7C1
:1018C000184805F0D7FB0022C821174828F034FA41
:1018D000206082E73C14012044D00710C8AA0120F0
:1018E000F8EA0710DCEA0710C0EA0710A4EA0710BC
:1018F00007AB01207C0100D00BAB01200CAB012019
:101900000AAB0120F4CF0710ECCF071048140120D8
:1019100090D0071068D007103814012074D0071039
:10192000441401207CD00710450D00103CF036F81F
:10193000002207000021FF2024F074FF05AB18707F
:1019400002040002120E000E5A7098700022380035
:10195000059912F0FBFE0222372138000BF0A8F89F
:10196000254938003CF028F820003CF017F8002208
:1019700004006421FF2024F055FF0104030206AA9D
:101980001B0E090E107093705170069900222000F2
:1019900012F0DCFE08231122390000955B4215E7A6
:1019A00006F0E8F84346186000201EF03FFE43466C
:1019B00019681EF06DFF0CE63BF0F0FFFF220400FB
:1019C000FF21002024F02EFF030409AA1B0E5370F0
:1019D00003021B0E9370107009992000002212F070
:1019E000B5FE200002221E210BF062F82000034900
:1019F0003BF0E2FFF1E6C046E4CF071088D00710C5
:101A000070B5050025F0EAFB431E0400102B00D939
:101A100070BD164E21003268154805F02BFB112CC5
:101A2000F6D133681B2BF3D100243460114E336898
:101A3000002BEDD0104805F01DFB01220F4B306844
:101A40001A7028F0BFF9280025F0BCFB06F02EF92B
:101A50000B4B34601C600B4B1C600B4B1C600B4B26
:101A60001C600B4B1C60FFF799FDD1E7A0AA012079
:101A7000B0D007103C140120D0D0071009AB0120D2
:101A80003414012030140120401401202C140120B2
:101A90002814012030B585B018F0F2FB3F4B05004B
:101AA000186806F0EBF9002007F0D2FAA021040034
:101AB000F02249000BF068F8002120000DF0FCFF37
:101AC00000220021200012F0F9FB0022002120005A
:101AD00012F0FEFB00220021200012F0DBFB0022AE
:101AE0000021200012F0E0FB00220021200012F073
:101AF000F7FC00220021200012F002FF24F002FF78
:101B0000030403AA1B0E537003021B0E1070937084
:101B100020000022039912F02BFC20000022FF215C
:101B200012F036FC200018F091F8002D02D02800A9
:101B300013F09EFA0A230025282220001849019359
:101B400000950233FFF79CFC0B23B42220001549BB
:101B5000019300950133FFF793FC0C2301930D3B98
:101B600028222000104900938333FFF789FC0D23BE
:101B700001930C3B20000D490093B4228133FFF701
:101B80007FFC0121200013F05FFC002801D006F04B
:101B9000BFF9002016F05AFE05B030BDC8AA0120DA
:101BA00088EA07106CEA071050EA071034EA0710B9
:101BB00070B5040025F00CFB0500200025F00EFB9D
:101BC0000400280009F076F8631E0500102B00D9E8
:101BD00070BD314E220029003368304805F04AFAC2
:101BE000112CF5D133680A2B27D00B2B10D01B2BCF
:101BF000EED1002329002A480A3D336005F03AFA65
:101C0000032DE5D8274805F035FAFFF7C7FCDFE7D5
:101C10000023254C336020680028D9D006F05AFAFA
:101C2000206806F009FB0028D2D009F043F81F4BCA
:101C30000100180005F01EFACAE7002333601C4BB0
:101C400029001C481D6005F015FA012D0DD0032D4B
:101C500013D00A2DBCD00B2D12D00C2D17D00D2D6A
:101C6000B6D1154805F006FAB2E7144B1B68002BF5
:101C70000AD0134805F0FEF9AAE7FFF70BFFA7E724
:101C8000104805F0F7F9A3E7FFF766FAA0E70E485A
:101C900005F0F0F99CE7C046A0AA0120DCD00710AF
:101CA00014D2071030D20710C8AA0120F0D10710B3
:101CB0004814012004D10710B0D107103C140120B2
:101CC00018D1071030D1071070D1071010B50400DB
:101CD0000B49006805F05AFE2079032100F026FF29
:101CE0006079032100F022FF20790022012100F019
:101CF00037FF00220121607900F032FF10BDC0469D
:101D0000A0860100F0B5D6464F464646C0B500272E
:101D100084B003AC0500884618000A21277091465C
:101D20009A4602F013FB0A210601504602F00EFB10
:101D3000761822006670286802236821009705F053
:101D40004DFE01230A212370484602F0FFFA0A21C2
:101D50000601484602F0FAFA7618220066702868F2
:101D600002236821009705F039FE02230A2123701F
:101D7000404602F0EBFA0A210601404602F0E6FA7C
:101D8000761828686670022322006821009705F003
:101D900025FE04B0E0BCBA46B146A846F0BDC04638
:101DA000F0B5CE46474680B5050085B00F00180057
:101DB0006421914602F0CAFACBB29846042303ACE0
:101DC00023700A21380002F0C1FA0A210601380006
:101DD00002F0BCFA002776182200667028680223F9
:101DE0006821009705F0FAFD05230A212370484673
:101DF00002F0ACFA0A210601484602F0A7FA76186A
:101E000022006670286802236821009705F0E6FD2D
:101E100006230A212370404602F098FA0A2106019F
:101E2000404602F093FA7618286866700223220072
:101E30006821009705F0D2FD05B0C0BCB946B04698
:101E4000F0BDC0460F22F0B5002701260C0085B07A
:101E50006A4405001770086801230096682105F0A0
:101E6000BDFD2068A21D00970723682105F0C0FD75
:101E70000723A07902091A40910051180F22490046
:101E8000104009182970E1790809034098001B18CF
:101E900011405B005B186B700323207A0109194025
:101EA0008F00C919104049000918A970A17A0809C2
:101EB000034098001B1811405B005B18EB70E17A3F
:101EC0000B091E400A237642114033405B182B71E8
:101ED000217B0B0998001B180A405B009B18FA2213
:101EE000D20094462800DBB26344EB8005B0F0BD1D
:101EF000044B054A1A60054A5A6000229A601A7318
:101F00007047C046E4AA01206802002014150000B2
:101F1000F0B5CE46474680B5884687B035490400BF
:101F200005F0F6FA01210700200005F0D5FA324B42
:101F30000600E118090D0631C9B2404600F0F6FD71
:101F40000023059380235B020293C0231B030493A9
:101F5000FB1DFA011B0313430520039301F0DCFF73
:101F600003F060F9254903F006F9EC21890503F037
:101F7000FFF8814603F07EF985B20023002D0ED0D4
:101F8000280003F04FF9011C484603F0EEF88721C2
:101F9000C90503F004F903F06DF9C3B21B022D0467
:101FA0001D43174A059BF821134042468900520100
:101FB0000A401343134A0295134080220125D2049C
:101FC000134331004246059300950123200005F09C
:101FD00021FBB54002AB3A003100200005F074FB54
:101FE000300023681D43256007B0C0BCB946B04629
:101FF000F0BDC046B80409100000E0AF0000FA448C
:102000001FFCFFFFFFFFFFE3F8B54746CE46140075
:10201000524A05009369884680B5DB0607D4102133
:1020200093691942FCD1136893691942F8D02900C9
:102030004B4805F01FF82F78002F18D029002022D8
:1020400000250D20474B02269E5F444B002D43D1B7
:10205000BE4248D09D692A42FCD11F600D780131F3
:102060000D3D6F427D410F78EDB2002FEED101F0B2
:1020700087FD002965D0FA220023920002F0A4F91E
:1020800005008022384F00213800920003F048F903
:102090000023324E99460AE0FA220023920002F011
:1020A00093F9401BA0420DD2B369DB0620D501F0A5
:1020B00067FD0029F0D1FA21890002F047F9401BA1
:1020C000A042F1D322004146284804F0D3FF00206B
:1020D000C0BCB946B046F8BD9D692A42BDD09D69D5
:1020E0002A42F9D1B9E79D692A42FCD11860B1E7CB
:1020F00010221A4910008B6918401A42FAD1FF23A6
:102100000A685B00994515DD4146380074F0C4FA51
:1021100000281CD13800164974F0BEFA002805D1F9
:102120003800144974F0B8FA0028C0D0124804F0FE
:1021300019FFCCE74B46494601337A549946F85487
:10214000E2E7FA21890002F001F9050099E741462A
:102150000A4804F08FFF0120BAE7C0460080034020
:1021600070D20710FCAA01202812012008D3071002
:10217000B8D20710C0D20710C8D2071088D20710F3
:10218000F0B5D6464F46824646465146C0B56B48E6
:1021900004F070FF6A4A9369DB0607D41021936943
:1021A0001942FCD1136893691942F8D08022654F17
:1021B00000219200380003F0B3F8FA22624992003D
:1021C0006248FFF721FFC82001F030FC5C4A9369A8
:1021D000DB0607D4102193691942FCD11368936977
:1021E0001942F8D00D26412500212022B446584B33
:1021F000584802241C5F524B002954D1AC4259D09C
:1022000099690A42FCD11D60017801300D394D42B7
:1022100069410578C9B2002DEED101F0B1FC002969
:1022200000D184E0FA220023920002F0CDF80400ED
:10223000802200213800920003F072F80023464DFE
:1022400098460BE0FA220023920002F0BDF8001B32
:10225000A8420ED83A4A9369DB0631D501F090FCCA
:102260000029EFD1FA21890002F070F8001BA84282
:10227000F0D93A4804F0FEFEEFF3108072B6384A07
:102280001368002BFCD0BFF35F8F0021354B197012
:10229000BFF35F8F116080F310880020E0BCBA4666
:1022A000B146A846F0BD99690A42ACD099690A4284
:1022B000F9D1A8E799690A42FCD1614619609FE704
:1022C00010210800936918401942FAD1FF231268BF
:1022D0005B0098450FDCFE3BFF3B43449946434679
:1022E000FA544B465146F854380074F0D5F900289A
:1022F00007D1C846B2E75146380074F0CDF900283E
:10230000ACD0194804F0B6FEEFF3108172B6144A4F
:102310001368002BFCD0BFF35F8F0120114B1870A6
:10232000BFF35F8F0023136081F31088B6E7FA21B3
:10233000890002F00BF804007AE7C04640D307108A
:10234000008003402812012084D3071088D307108F
:10235000FCAA012098D30710DB050000F0D307107A
:102360007C0100D00BAB0120A8D30710F0B5D646F6
:102370004F464646FA20C0B580008CB001F056FBAF
:102380000AACB84804F076FE2000B749FFF75AFDC2
:10239000FA22E388D200934230D0002B2ED0EFF304
:1023A000108072B6B14A1368002BFCD0BFF35F8F68
:1023B0000121AF4B1970AF4B1970BFF35F8F002332
:1023C000136080F31088EFF3108172B6A74A136888
:1023D000002BFCD0BFF35F8F0120A74B1870BFF319
:1023E0005F8F0023136081F31088A44804F042FE3D
:1023F0000CB0E0BCBA46B146A846F0BDA04804F017
:1024000039FE01F0BDFB002900D0C5E0FA218900AA
:1024100001F09CFF80469B4F01F0B2FB002900D1E8
:1024200081E0FA220023920001F0CEFF4346964A53
:10243000C01A904200D980E0944A10219369DB06CB
:1024400006D493691942FCD1136893691942F8D0F4
:102450008E4A9369DB0607D4102193691942FCD197
:10246000136893691942F8D03900894804F002FED4
:1024700041263800002120220D25864B02241C5FB6
:10248000824B002900D08EE0B44200D193E09969DC
:102490000A42FCD11E60017801300D394E42714173
:1024A0000678C9B2002EECD101F06AFB002900D1F8
:1024B000AFE0FA220023920001F086FF04008022A0
:1024C000754E00213000920002F02AFF0023C8253B
:1024D0009946724B6D009A460BE0FA220023920057
:1024E00001F072FF001BA8420ED2684A9369DB0616
:1024F00066D501F045FB0029EFD1FA21890001F0F2
:1025000025FF001BA842F0D3C82251466448520060
:1025100004F0B0FDFA20400001F088FA01F030FB31
:10252000002900D07DE7FA21890001F00FFF434622
:10253000554AC01A904200D87EE75A4804F09AFDE6
:102540005948FFF71DFE002869D10023EFF31081E1
:1025500072B6464A10680028FCD0BFF35F8F45482A
:102560000370BFF35F8F0020106081F31088002B91
:1025700000D0ADE0EFF3108072B63C4A1368002B38
:10258000FCD0BFF35F8F0021394B1970BFF35F8F11
:10259000116080F3108816E7FA220023920001F000
:1025A00013FF804637E799690A4200D172E79969BB
:1025B0000A42F8D16EE799690A42FCD11D6066E7CC
:1025C00010210800936918401942FAD1FF231268BC
:1025D0005B00994505DC4B464946013399467254E8
:1025E000F0545146300074F057F8002800D0B5E0A0
:1025F00030002E4974F050F8002806D130002C49E4
:1026000074F04AF8002800D173E72A4804F0AAFCC5
:1026100080E7FA21890001F099FE04004FE726487F
:1026200004F028FDFA20800001F000FA174A9369AF
:10263000DB0607D4102193691942FCD11368936912
:102640001942F8D01D4804F015FD1D491D481E4AC9
:10265000FFF7DAFC002800D189E01C4804F00AFDED
:10266000012373E764D70710E4AA01207C0100D09E
:102670000AAB01200BAB01200CAB01201CDA0710C8
:102680009CD70710DCD707106F17000000800340AD
:1026900070D20710FCAA012028120120ECD70710E5
:1026A00008D3071048D807108CD80710B8D20710E5
:1026B000C0D20710C8D2071098D80710C4D8071086
:1026C00004D9071010D90710A86100003CD90710E1
:1026D000FA20800001F0AAF9614A9369DB0607D469
:1026E000102193691942FCD1136893691942F8D0FB
:1026F0005C4804F0BFFC5C495C485D4AFFF784FC21
:10270000002800D15FE680225A4E0021920030005E
:1027100002F006FE01F034FA00292CD0FA22002340
:10272000920001F051FE05000024534F0CE0FA2204
:102730000023920001F048FE03005B1BBB422FD830
:10274000474B9A69D2061CD501F01AFA0029EED13E
:10275000FA21890001F0FAFD0300EEE751464748EF
:1027600004F088FC464804F085FC0123EEE6454869
:1027700004F080FCE9E6FA21890001F0E7FD05009C
:10278000D2E710221000996908400A42FAD11A686B
:102790003D4B9C42D8D0631C32551C00F054D3E70B
:1027A000082C00DC0FE632000023083C04E0013373
:1027B0000132A34200D106E611782D29F7D1D17854
:1027C0002D29F4D1023BF01809AB039308AB029317
:1027D00007AB019306AB00932C4905AB04AA73F039
:1027E000C5FC062800D0EEE5FA25089CED00200087
:1027F000AC46049A1E30079B069962443B282ADCAB
:102800000533172B01DD183B0131EFF3108572B64C
:102810001F4C2668002EFCD0BFF35F8F1D4E336027
:102820001D4B18601D4B099818601D4B19601D4BFE
:10283000059919601C4B1A6001221C4B1A701C4B25
:102840001A70BFF35F8F0023236085F31088194847
:1028500004F010FCB7E5200006331E38D1E7C0466F
:10286000008003409CD9071010D5071018D5071019
:102870008813000028120120C309000088D2071025
:10288000F8D7071068D90710FF01000004D6071019
:102890007C0100D0A8AA0120ACAA0120B4AA012082
:1028A000A4AA0120B0AA0120B8AA012008AB0120E7
:1028B0000AAB0120DCD90710D0231B061B68974AFE
:1028C0009900F0B54E46894651585A4253412F223D
:1028D00057464546DE465B4293439846904BE0B5EB
:1028E0009C4683B000270191E044002939D08D4BEC
:1028F0000F269B464246FB0808339B009C58012349
:102900003D009A460837002C22D031002140264253
:1029100018D05B464A469A582B00EA40203BDB170A
:102920001340524613420DD1072208002A4092005C
:1029300090400200EB087C483C339B001A50280072
:10294000019B984724090135002C01D0BD42DCD3FE
:10295000202FCFD103B0F0BCBB46B246A946A0465B
:10296000F0BD704B00200F229B46C6083300414645
:1029700008339B005B5801000830002B00D1B2E007
:1029800017001F40BC461A420FD04C465D460F0050
:102990002C59203FCC40FF1727400124274204D167
:1029A0006446614F3C36B600F4511E0900D19AE0EE
:1029B00017003740324213D04C1CA4465D464C46AB
:1029C0002C5965460E00EC401F3EF61726400124A8
:1029D000264205D1EE08544C3C363F01B600375133
:1029E0001E0A00D17FE017003740324213D08C1C02
:1029F000A4465D464C462C5965460E00EC401E3EF2
:102A0000F61726400124264205D1EE08464C3C36F6
:102A10003F02B60037511E0B65D0170037403242D7
:102A20000DD0CC1CA4465D464C462C5965460E0084
:102A3000EC401D3EF61726400124264257D01E0CBE
:102A400051D014003440A44632420BD04C46354E8F
:102A50000F1D3659FE40B2460E0054461C3EF60F7E
:102A600026424BD01E0D3ED014003440A4463242C4
:102A70000BD04C462B4E4F1D3659FE40B2460E0031
:102A800054461B3EF60F264240D01E0E2BD014009B
:102A90003440A446324212D04C46224E8F1D365945
:102AA000FE40B2460E0054461A3EF60F264206D1AC
:102AB0006446FE083C3627061B4CB60037511B0FF8
:102AC000CF1D002B0FD04C465D462E590124FE40F1
:102AD0001939C9173140214205D1F908124E3C314C
:102AE0001B0789008B51202800D03EE732E7EE0813
:102AF0000D4C3C363F03B6003751A0E76446FF0853
:102B00003C37BE00084F2404F451ABE76446FE088E
:102B10003C362705044CB6003751B6E758AA0120C9
:102B200030410140DCAA012000400140094A8300F5
:102B30009A1810B514684022544080322240064C46
:102B4000C000A44663441A60044B9C466044416044
:102B500010BDC04604C0014004D001400040014007
:102B6000074B8000C3181B68C90092000A435A40F3
:102B70000C231340034A9446604403607047C046E8
:102B800004C0014004D00140D0231B061B6830B5AF
:102B90000500584243412F205B4283430E48EC0816
:102BA0008446072028408000814020000B4D3C30A7
:102BB00063448000A40041511B19002A05D08022E3
:102BC000920194466344196030BDC022920194463C
:102BD00063441960F8E7C0463041014000400140BD
:102BE000F8B545469846D0231B06DE461C689B4632
:102BF0002B4B57469A46A3004E469946E0B553469E
:102C000016004A469B5807000D00002B34D043465F
:102C1000002B3FD053464A4641469950D0231B06CD
:102C20001C6863425C412F220720634293431D4A84
:102C300038409446FA081100800085403C311A481B
:102C40006344890092000D509B18002E0ED0802204
:102C500092019446634401210D201D6000F02EF97D
:102C6000F0BCBB46B246A946A046F8BDC0229201C0
:102C7000944663441D60F3E74346002BD1D053468E
:102C800041460D2099500022084900F05FF95B464B
:102C90001C68C6E70D20054900F052FABAE7C046A5
:102CA00058AA01203041014000400140B9280010DD
:102CB0000123D0228340120693629361094A830064
:102CC0009A1811684022514080320A400649C000DB
:102CD0008C4663441A60054B9C4605236044436060
:102CE0007047C04604C0014004D00140004001408C
:102CF0000FB400B5084883B004F034F9049B002BEE
:102D000007D005A91800019103F0E6FE034804F07E
:102D100029F9012003F0F8FE60DA0710C4D4071087
:102D2000EFF3108072B6034A1368002BFCD0BFF398
:102D30005F8F70472C0100D0BFF35F8F0022024BE2
:102D40001A6080F3108870472C0100D070B5EFF343
:102D5000108C72B60D4D2B68002BFCD0BFF35F8F2B
:102D60000724CB08C618C05C01230C40A3401C00FC
:102D70000440034207D118433070BFF35F8F2C60CB
:102D80008CF3108870BD1000FFF7B2FF2C0100D04B
:102D9000F8B54746CE46884680B5EFF3108C72B63C
:102DA000214D2C68002CFCD0BFF35F8F9A422CD8A9
:102DB000D4080727055D061901241740BC402C42A2
:102DC0001FD007210127894609E0D408055D0619AF
:102DD0004C4639001440A1400C00294211D0013268
:102DE0009342F2D201204042BFF35F8F00220E4B8C
:102DF0001A608CF3108800280FDBC0BCB946B046BF
:102E0000F8BD254310003570EEE7BFF35F8F002358
:102E10002B608CF31088012040424346002BECD0FD
:102E20000898FFF765FFC0462C0100D030B5EFF3DE
:102E3000108C72B60A4C2368002BFCD0BFF35F8F56
:102E4000072301220B409A40CD08435D934343552D
:102E5000BFF35F8F002323608CF3108830BDC04622
:102E60002C0100D0044A1078431CDBB2172B00D988
:102E7000102313707047C046C10100200021044B8D
:102E8000044ABFF35F8F02C39342FAD17047C04632
:102E9000000100D0800100D0054B064A1360064AAD
:102EA000136053609360D360136153619361704703
:102EB0008080808000E400E004E400E01F231840EC
:102EC0001E3B8340002905D0C021044A49005350CD
:102ED00013607047802201498B50FAE700E100E05F
:102EE00001228240034B1B6813405A1E9341D8B203
:102EF0007047C04600E100E070B50D00EFF31086AA
:102F000072B60F4A1368002BFCD0BFF35F8F0D4BD6
:102F100010309B6884001B590B4A934203D09D429A
:102F200001D001F0A1F8074B9B681D51BFF35F8FE3
:102F3000BFF35F8F0022024B1A6086F3108870BDCA
:102F4000240100D000ED00E0C1010010F0B55746AB
:102F50004E46DE464546E0B585B0060000911700B6
:102F6000EFF3108B72B66A4A1368002BFCD0BFF3E4
:102F70005F8F0025674B5D579A46002D00DAA9E068
:102F80006B00654C01935B199B009846A146C144B8
:102F90004B4652469B7910361370604BB6009B68C7
:102FA00099590B1B2F2B33D95D4B994200D0ACE0C4
:102FB000019B42469C465B4B6544AD0063535A4BB4
:102FC0000232A218043B9B1A1B05584A5B0D651977
:102FD00013436B80564B0121AB80FF23AB71009BE9
:102FE000EF71AB604B460B4319004C4B9B689951FA
:102FF000BFF35F8FBFF35F8F0022454B1A608BF3E7
:10300000108805B0F0BCBB46B246A946A046F0BD4C
:1030100001200A008243D3798C46BB4231D8454611
:10302000130044491B1B5B415943090D3D4B63533E
:103030003D4B02356519043B5B1B1B053B4D5B0D8E
:103040002B43AA464D466B800425AC465546E044CA
:10305000131F44441B1B1B055B0D1D434B469971FD
:1030600000999D8099604946DF71334B014313609D
:10307000BBE75800C01880002018C179B9422FD989
:1030800002000623D356002BF3DA02932B4B614642
:103090000393131D9A4604235B429C46E144504629
:1030A0004B461B1A1B055B0D9C46204B95719846A1
:1030B0006346404603439380019B5A199200039B49
:1030C000A418A380029B1C4AA371009B2260E77195
:1030D000A3608AE700F0C8FF002553465D574FE71D
:1030E000908802934005131D9A46031561469C463D
:1030F0004046D444634604302018181AE0230005E3
:10310000400D1B0218430390C5E700F0ADFF4FE7E9
:10311000240100D00DAB0120C401002000ED00E02F
:10312000C101001000A1FFFFF401002000E0FFFF3B
:1031300001BDFFFFAAAA00000148804701BD0000B1
:10314000F0B5DE4657464E464546E0B50C0083B026
:10315000EFF3108872B6634A1368002BFCD0BFF3FC
:103160005F8F614B61499A68030010339F00D55906
:1031700000938D4243D0A54254D05D4EAA1B2F2A06
:103180003DD85C4B9C461B689A4601231A00994621
:103190008240534613401F2201934B460240934006
:1031A0009A468022634650469850BFF35F8FEFF3F4
:1031B00005839B46002B37D0009B5B4501D000F078
:1031C00053FF2A004B469A439068844208D177E027
:1031D0004B005B189B00F3189868844236D01A00A5
:1031E000062151560029F3DA844255D0019B002B69
:1031F00027D0C02251463F4B5200995019603A4B9C
:103200009B68DD51BFF35F8FBFF35F8F0022354BAB
:103210001A6088F3108803B0F0BCBB46B246A946DA
:10322000A046F0BD0D00EAE72A004B469A4390689D
:103230008442D5D106201056130000280ADA0D006A
:1032400032E0802351462B4AD150D8E70620185649
:10325000002822DB42001118890074188946A168F1
:103260009960E179D971062161569971002925DBB0
:10327000A488F11A640524154C440919E0240905B1
:10328000490D24022143998013181B4A9B00117891
:10329000F31899711070A9E713005946002914D149
:1032A000FF3191711549918013490A789A71144A36
:1032B0009B1B5B415A43120D0A7097E71149E2E7E5
:1032C0000620105613000028C4DA0F4A0F49D21AFC
:1032D000083A5002400D014399800D4952080A43B3
:1032E000DA8083E7240100D000ED00E0C101001086
:1032F000C401002000E100E00DAB012001BDFFFF93
:10330000AAAA000001BD0000FE01002000F0FFFF9E
:1033100000F8FFFF70B501240443EFF30581EFF3DC
:10332000108C72B6214A1368002BFCD0BFF35F8F5C
:103330001F4B05001F4AED1A6D416A43120D1E4DC9
:103340008900AE6852B27658A6421CD00621595662
:1033500091421CD012215956914222D01E21595619
:10336000914220D02A2159560324914210D0134B68
:1033700019781A708171BFF35F8F00220B4B1A60AE
:103380008CF3108870BDAB680D4C5C50EFE70024E7
:103390006100091989005B18FF2199710949998019
:1033A000E5E70124F4E70224F2E7C046240100D057
:1033B000C4010020AAAA000000ED00E00DAB01202E
:1033C000C101001001BDFFFF024B9C466144890012
:1033D000016070474000003470B5114C114DAC4293
:1033E0000FD2FF262368002B0CD0FFF73BFD010016
:1033F0002000FFF7E9FFA680BFF35F8F0834AC42DF
:10340000F0D370BDFFF72EFD01002000FFF7DCFFB9
:103410002671BFF35F8F0834AC42E3D3F1E7C046B7
:1034200070090020800900200A4B1968EFF3108012
:1034300072B60A68002AFCD0BFF35F8F1B68BFF327
:103440005F8F00221A6080F3108840BF00200021A7
:103450007047C046F8AA0120F0B5DE4657464E46F2
:103460004546E0B583B0EFF3058203231340B54A28
:10347000990052580091904601229A409346B24BCF
:103480001A60B24B01935B46B1484363434608223E
:103490009B5E9946002B3ADA43469B881BB2002B71
:1034A00000DB9DE043469B79002B00D0E1E04346E2
:1034B00008241C5F002C20DB43465A6963001B195B
:1034C000DB00D3189D68DC686B1C00D103E1A048C9
:1034D000009984466144826A0B69AE1A9B1A9E4227
:1034E00013D35A46036A1A420FD0994800F040FBA2
:1034F0008C4202DCC7D18542C5D940BF03B0F0BCC5
:10350000BB46B246A946A046F0BD0D61EDE7424676
:1035100052695B0092464B44DB009A4453469E68D6
:10352000DF6800F025FB8F42B6DC00D1F8E0002F09
:1035300000DAD9E05246534654691B69019A934216
:1035400000D1CCE0414652460820085E5288000473
:1035500021001043984704000D0023002B4300D1A5
:10356000C2E0002D00DBDFE030003900001BA94184
:1035700053469860D96000229A5E002A00DA8BE7F1
:1035800043465D6953009C18E4002C19A768E46861
:103590008C4200DD80E702D1874200D97CE74646B5
:1035A000328108360DE08C4200D1C6E01E000023B7
:1035B000F25E002A0ADB53009C18E4002C19A7686D
:1035C000E4689B18DB00EB188C42ECDD53461A8054
:1035D0004B46338043469B881BB2002B00DA61E7E1
:1035E00043461A69EFF3108172B61368002BFCD0C2
:1035F000BFF35F8F43469E88012342465B42938020
:1036000036B21369BFF35F8F00221A6081F310880E
:10361000002E00DA46E743465D69083342469C4681
:103620007700BF19FF00EF19BB6860469846082372
:10363000D15E9246FC68002907DA0EE0A24246D02D
:1036400018000023C15E002906DB4B005B18DB007D
:10365000EB18DA68A242F1DD524606800023FE5ED6
:103660003980002EDCDA904643469B79002B00D14E
:103670001DE7002342469371434646460821595EA2
:1036800008364B1C00D138E747468946556902E0A9
:1036900006004B1C18D04B005B18DB00E8180A0032
:1036A0008C46E95E43881BB2002BF1DA01235B42B2
:1036B000DC178360C4604A4503D031803B890380B6
:1036C0003A81E1464B1CE6D1B8464C46F2E69A6890
:1036D0004245B5D9C0E7631C00D0F8E605E72000F5
:1036E00023699847002825D1534642461B881381F9
:1036F0001269EFF3108372B611680029FCD0BFF392
:103700005F8F4246514652880A8042464946518060
:103710001269BFF35F8F0021116083F31088BBE64D
:10372000864200D803E7B7E6094800F021FA0019FD
:1037300069411DE7656824680FE7874200D835E7CF
:1037400044E7C046CCAA01203C7005405934001023
:103750000040054070B52E4C2569002D04D00A218B
:103760002C48FFF731FE70BD2B4E0321300000F0D6
:10377000F5F9E660FFF776FB284B03229C46D02341
:1037800022701B061B6801216370254B6044A360F7
:103790000F23800020610220638063694942A18079
:1037A00019800231198647311D83585218315A52F7
:1037B00075325C39995218320131995218320131FF
:1037C0009952183201319952083518329D520231FE
:1037D00018329952183201319952183201319952E6
:1037E000183201319952183201319952183201318F
:1037F00099520C4B0C49DC6001303562FFF77CFBC1
:1038000001210320FFF75AFB084B1D60A7E7C046C4
:103810000C020020F8AA01200040054040000034BE
:10382000FFFF1000CCAA0120593400103860054079
:1038300070B501000469EFF3108C72B6206800289F
:10384000FCD0BFF35F8F02200D5E4C696800401909
:10385000C0002418002D37DB208848800869BFF39A
:103860005F8F002606608CF31088E36063880498FD
:10387000013320615B0405985B0CA26060611A1C37
:10388000002B1FD093B22804628018430A69EFF31B
:10389000108C72B61368002BFCD0BFF35F8F8B883F
:1038A00023808D800B69BFF35F8F00221A608CF339
:1038B00010880B7801329A40CB6808498C466344E3
:1038C0001A6070BD0122DDE70B69BFF35F8F002234
:1038D0001A608CF3108801204042F2E73C2000007F
:1038E00010B543890A1493421ADD53009B184269AC
:1038F000DB00D3180469EFF3108C72B62268002A3B
:10390000FCD0BFF35F8F5A88090494B2090C8A4235
:1039100008D00369BFF35F8F00221A608CF3108810
:10392000002010BD8022120214435C800123026932
:103930008371BFF35F8F002111608CF310880449FD
:1039400002788C469340C268012062441360E8E725
:103950003C200000F0B504000D0006267642F71763
:10396000C64636196F4100B582B08F4214D811D0C7
:1039700000F006F932003B00121A8B41002B17DCD5
:10398000002B47D02000290000F038F902B080BC9D
:10399000B846F0BD8642EBD90022002316001F0076
:1039A00000F0EEF832003B00121A8B41002BE7DDED
:1039B00000F0E6F832003B00121A8B41002B0ADBC4
:1039C00000230193154B3200009315483B00FFF78D
:1039D0002FFF0028D6DB00239C46B046114A124E2A
:1039E000736A9F4204D8B16A8845CBD99F42C9D136
:1039F0001168EFF3108072B60B68002BFCD0BFF398
:103A00005F8F1368BFF35F8F6146196080F3108882
:103A100020BFE5E7002AB5D0CAE7C0462934001028
:103A20000C020020F8AA01200040054070B50600F5
:103A300000F0A6F8FA2204000D0000233000002157
:103A4000920001F075FB8023001969411B06994221
:103A500002D3012002494042FFF77CFF70BDC046FF
:103A6000FFFFFF7FF0B5D6464F464646C0B504007F
:103A70000D0082B0EFF305878946002F0ED0344940
:103A800000204B6AAB4203D38A6A0130A24226D39C
:103A900002B0E0BCBA46B146A846F0BD2D4B9846F0
:103AA000DB689A46434650461E7800F061F80B00EA
:103AB000514602000436B600715820008E1A2900C3
:103AC000801A99418F4211DC0ED020BF204A00207D
:103AD000536A4B45DCD3926A0130A242D8D25B1BB9
:103AE0005A1E9341D8B2D3E78642EED900F048F887
:103AF00022002B00121A8B41002B1ADB00230193AA
:103B0000154B2200009340462B00FFF791FE011E4B
:103B10000FDD0F4B5A6A4A4517D39B6AA34212D353
:103B20004046FFF7DDFE0A4A0020536A4B45AFD3FB
:103B3000D1E7074A0020536A4B45A9D3926A012076
:103B4000A242A5D2CBE74A45EAD120BFE8E7C0466A
:103B5000004005400C0200202934001010B5024A34
:103B60000248FFF7F3F810BD70DA071068AA0120C9
:103B70000300416A0A00986A596A8A42FAD170477A
:103B8000034B596A0A00986A596A9142FAD1704700
:103B90000040054070B504000D00174A536A190033
:103BA000966A536A8B42FAD13000190024184D41AD
:103BB000AB4216D813D0104A2B00526A954203D953
:103BC0000D494A6A9A42FCD39A4207D10A4A02E056
:103BD000516A994202D1916AA142F9D370BDA642BD
:103BE000E9D9054B5B6A1C005A1CEFD00123012464
:103BF0006442E5175B42E3E700400540064A536A2A
:103C00009942FCD807D1044B02E05A6A914202D192
:103C10009A6A8242F9D3704700400540F8B5040023
:103C200006200D0000F078F9002844D0374B3849C1
:103C3000E3185A1E93418022120494465B429B0D66
:103C4000344A9B0563441360334A136018000A68C2
:103C50009043FBD12D4B314AE31859424B4180210F
:103C60005B0049000620995200F056F92900C00077
:103C700000F06CFB0130C3091ED1402701226262B3
:103C8000A362266BF30722D4E36A254B0620E518CE
:103C900000232B60266300F03FF93900800000F01C
:103CA00055FB7023E26A5A400E3313402B601D4BC4
:103CB00023630323A364F8BD1B4A93421ED9002348
:103CC0001A4A1B4F6262A362266BF307DCD5194BBD
:103CD000144AE3181A60656AA36A0620AD01ED185C
:103CE00000F01AF9144900F031FBAD020100280080
:103CF00000F02CFB0021FFF74DFFC5E74006800ECA
:103D00009F011A003F180300B9E7C0460080FCBFBE
:103D100008C0004000E0004000F00040FCAA012084
:103D20002C10000001030000FEFF0000FFFF000058
:103D3000C0FF3F00303000004E0E0000F8B5DE46F8
:103D40004E4657464546E0B58B4605000A99180091
:103D5000160000F0FBFA0A9B6C001F02324B64193C
:103D60009C46A4006444636881469F4200D9676012
:103D70002B1FDBB29846012B30D9C02380229B0138
:103D8000E31812011A60294BAD0059599A460029CF
:103D90001BD17301E026226853401E408023424617
:103DA0005B01E3181E60012A30D9802380229B0129
:103DB000E31812011A6053464A4667605A51F0BC34
:103DC000BB46B246A946A046F8BD586900F0BEFA07
:103DD000013043001B18033BFDD2DAE75B46012BA1
:103DE000CBD1C02303229B01E3181A60023AA368D7
:103DF0001A42FCD07301E0262268AD0053401E40F9
:103E000080230A4A5B019246E3181E605A462168E5
:103E1000514003220A401A6001225B469A40A3687F
:103E20001A42FCD0C1E7C0460080004070AA0120C1
:103E3000F0B546464F46D646C0B51F00344B440049
:103E40009C462418A4006444636888461600FF2B2F
:103E500002D880235B006360031FDBB29A46012B0C
:103E600030D9C02380229B01E31812011A60294B2C
:103E700085005959994600291BD17301E026226813
:103E800053401E40802352465B01E3181E60012A06
:103E900030D9802380229B01E31812011A6080230D
:103EA0005B0063604B465F51E0BCBA46B146A84632
:103EB000F0BD586900F04AFA013043001B18033B7B
:103EC000FDD2DAE74346012BCBD1C02303229B016D
:103ED000E3181A60023AA3681A42FCD07301E02684
:103EE0002268850053401E4080230A4A5B019146A8
:103EF000E3181E6042462168514003220A401A60BE
:103F0000012342469340A2681342FCD0C1E7C04659
:103F10000080004070AA0120014B8000C05870470B
:103F200070AA0120F8B5040021481E0017000D00FA
:103F300000F00CFA0100380000F008FA069B360485
:103F40001B031E432368002B20DB1A4B1A49E3187E
:103F50005A1E93418022920194465B421B0B174AE2
:103F60001B0363441360164A13601F000A689743DB
:103F7000FBD1144B2560E2182123A0601360236855
:103F8000002BFCDA0823E6601360F8BD3F232268AB
:103F90001340AB42D9D1A3681B051B0D8342D4D17A
:103FA000EE22E368D2021340B342CED1EDE7C04621
:103FB000001BB7000040FDBF08C0004000E000400B
:103FC00000F00040043000008023024A9B000B43B5
:103FD000D362704700800540142310B50100188893
:103FE00004331B88984710BD162310B501001888AC
:103FF00002331B88984710BDF8B54746CE4680B5BA
:104000000F1E19D0142399460433040000250126FD
:1040100098464B461888434621681B88984701C438
:10402000431E9841013540420640AF42F1D1300075
:10403000C0BCB946B046F8BD0126F8E7AA23064A37
:104040001B0113608D235B00D3600449044B19608E
:104050005368002BFCDA70470040024000B0FA00C1
:10406000006002407047C04610B50148FEF740FEB0
:1040700094DA071070B5074D074EB54209D20024F7
:10408000013E761BB60808CD984723000134B342A1
:10409000F9D170BD00CE07103CCE071070B5074DAA
:1040A000074EB54209D20024013E761BB60808CD62
:1040B000984723000134B342F9D170BD34CE0710C4
:1040C0003CCE0710054B064A06491A60064A074BC4
:1040D0001A6010000B689843FBD1704700E0004065
:1040E000BFCDFBFE08C00040FE7F3C0000F000405A
:1040F000044BDB6C002B03D18022034BD2021A60ED
:104100007047C046000011504C201150044A054B26
:104110001A60054A1368DB018033FBD17047C04643
:10412000FFFFFF0100F0004008C000404022034BA9
:104130009A675A671A67DA667047C04600F001400E
:1041400010B5FEF79BFE10BDF8B52749274C284D4A
:10415000641AA6103200302E00D9302228009200B6
:1041600001F0E4F8BC2C3BD830202F232C19640735
:10417000204A801BE40F9B1B052B16D93700002C0F
:1041800002D0B300771CEA50001B33199B00410892
:10419000EB18C900C9181A605A6008339942FAD15D
:1041A000012303421CD09843C619B300EA50731C84
:1041B0002F2E15D09B00EA50B31C2E2E10D09B0042
:1041C000EA50F31C2D2E0BD09B00EA50331D2C2EF1
:1041D00006D09B00EA50731D2B2E01D09B00EA50A5
:1041E000054B9D60F8BDC04600010010C0010010E5
:1041F00000000020C101001000ED00E0002310B518
:10420000294C82B0A367FFF719FF0122274B1A60E0
:10421000636C012BFCD10322254B1A60224A936B5D
:10422000012BFCD1013300930121224A224804339F
:10423000FFF778FE052301210093204A2048FFF76D
:1042400071FE0022022104201E4BFFF7F1FD002227
:10425000012105201C4BFFF7EBFD00220021072068
:104260001A4BFFF7E5FD002200210820174BFFF74E
:10427000DFFD8023DB000093002200210920134B87
:10428000FFF75CFD0022104B00210620FFF7D0FD58
:104290000420FFF741FE0E4900F058F8010000200D
:1042A000FFF792FE02B010BD008000403CB000401D
:1042B00030B00040002F685900800240008C8647D3
:1042C00000C00240001BB70040597307006CDC02BD
:1042D00040420F0001480421014B184730020020E2
:1042E000F93F0010014B5B681847000030020020C6
:1042F000014B9B681847000030020020124A936F60
:104300009B0815D29066D166002905D0FFE7FFE72C
:10431000FFE7516F106F704704B580210906C2177F
:104320005140002800D0C84378F052FD002104BD60
:10433000F0B5146E556E576F166FFFF7E3FF1466F6
:10434000556657671667F0BD000000D0114A936F9D
:104350009B0813D210665166002905D0FFE7FFE7DE
:10436000FFE7516F106F704704B5002801D000209F
:10437000C04378F02DFD002104BDC046F0B5146E99
:10438000556E576F166FFFF7E5FF14665566576752
:104390001667F0BD000000D094464A4A926F92081A
:1043A000624601D228E0C046F0B5464E346E756EC6
:1043B000776F366F00F020F89446424A14665566CF
:1043C000576716676246F0BD94463E4A926F920860
:1043D000624601D254E0C046F0B53A4E346E756E76
:1043E000776F366F00F04CF89446364A146655667F
:1043F000576716676246F0BD002B24DB11D00029F9
:104400003EDA00B5C943404200D1013100F038F82E
:10441000C943404200D10131DB43524200D1013354
:1044200000BD002AEBD1002801D1002905D00020D1
:10443000C90FC90701D1C043410800B578F0C0FCDD
:104440000022002300BD00B500290ADBDB435242F5
:1044500000D1013300F014F8C943404200D10131CA
:1044600000BDC943404200D10131DB43524200D17B
:10447000013300F005F8DB43524200D1013300BDA7
:10448000002923D1002B18D1002A0CD0BC460D4F97
:1044900038667A6600210023FFE7FFE7FFE77A6FBF
:1044A000386F67467047002801D00748010000B503
:1044B00078F086FC0022002300BD02000B000020E3
:1044C00000217047000000D0FFFFFFFF002B00D04D
:1044D000BFE0130C28D1002AE7D080B4114F396611
:1044E0007A66FFE7FFE730B4040C7B6F396F1B047B
:1044F00023433B667A66FFE7FFE7FFE7C04684B2E7
:104500007B6F3D6F1B0423433B667A66FFE7FFE743
:10451000C04600232C042D0C7A6F386F00196941B6
:10452000B0BC7047000000D0F0B594460025140ED2
:1045300001D112020835140F01D112010435940F74
:1045400001D192000235D40F01D152000135D40BB4
:104550000134254F7C66254C3C660E0C93B2FFE778
:10456000FFE7FFE73C6F6643360C7703BE467343B5
:10457000DF0B5B04C01AB941130C7343DB18C91A73
:10458000CE086643360CB64493B273431F0F1B012B
:10459000C01AB941130C73431F0B1B05C01AB94154
:1045A000860D8F023E436643360C092D24DB520AEA
:1045B0007243801A7703460A6643360C16235B1B48
:1045C000DE40DF40BF1964466643821B70460435F7
:1045D00006330100D940A840C01900D30131A242DE
:1045E00006D20023F0BD0000000000D0FFFFFFFF57
:1045F000121B0130F3D3F1E709277F1BFE4064460D
:10460000A2B27243801A00D20139220C7243130CF9
:104610001204821A99410B007046043513370100C9
:10462000F940A840801900D30131002B02D1A242E9
:104630000AD2F0BD013000D30131121BFAD2013B86
:10464000F8D1A24200D2F0BD013000D30131121BDB
:10465000F7E7F0B51C0C00D080E00CB400251C0A74
:1046600004D11B02160E3343120208351C0B04D171
:104670001B01160F3343120104359C0B04D19B0020
:10468000960F334392000235DC0B02D192185B4146
:1046900001351C00971864410134464F7C66464C36
:1046A0003C660E0CFFE7FFE7FFE7C0463C6F664342
:1046B000360C7703BE4697B27743C01B00D2013950
:1046C000C01B00D201399FB27743C91BC91B170C0D
:1046D00077437E04FF0B801BB941CE086643360C3E
:1046E0000C2D33DBB644120B1F053A431B0B97B25C
:1046F0007743C01B00D201399FB27743C91B170C07
:1047000077433E043F0C801BB941860D8F023E4328
:10471000664329277F1BFE400C3D7746AF40BF19FB
:1047200030BCA2B2ABB272437343801A9941220CDF
:104730007243130C1204801A994102000B000137D6
:10474000001BA941F9D2781E0021F0BD0C277F1B68
:10475000FE4077467F0BAF40FF19E0E700245D1C69
:1047600007D0144F7D663966FFE7FFE7FFE7FFE7F5
:104770003C6F95B29EB265436643401BB141150C38
:104780001E0C6543664336042F0C3E432D04401B2C
:10479000B141994204D202000B0020000021F0BD7B
:1047A00001D19042F7D3801A994101349942F2D352
:1047B000F6E70000000000D0FFFFFFFF4840414047
:1047C000484018B41B4B5B68FC46019308BD04DFEE
:1047D000FF4A001018B4174B1B68FC46019308BD34
:1047E00000DF094B00109446134A926F920809D2D9
:1047F000624618B40F4BDB68FC46019308BD0CDF22
:10480000C14D00100C4AF0B5146E556E576F166FFF
:104810006246FFF7EEFF084A14665566576716674B
:10482000F0BD18B4034B9B68FC46019308BD08DF3C
:10483000654C0010000B0020000000D0FFB5504078
:104840004240504059404B40594000E0FFB5154FA1
:104850004C00640D03D0BC4204D10C0314D80020DA
:10486000090D09055C00640D03D0BC4204D11C0392
:104870000AD800221B0D1B0501264B4009D44B40D2
:1048800003D58B4200D18242FFBD9942FCD19042B8
:10489000FFBD0B43DB1803431343F5D0C94349184D
:1048A000FFBD0000FF07000000B5FFF7CFFF01D0FC
:1048B000002000BD012000BD00B5FFF7C7FF80410B
:1048C00000BDC04600B5FFF7C1FF01D9002000BD03
:1048D000012000BD00B5FFF7B1FF01D9002000BDE8
:1048E000012000BD00B5FFF7A9FF804100BD0120F8
:1048F00040054A00121804D85A00121801D80020A6
:1049000070470120704700000021002805D1704742
:10491000C1174840401AFAD0C90713B5064B1B68A7
:1049200098470CBC441CA2401005120B0349091BFC
:1049300009051943114310BDF4AA01201F0400000A
:1049400010B54C00620D8023D218DB00D21A5B0533
:104950007E2A10DD9E3A13DACC1709034908194361
:104960005242D140640001341532202A05DAD04089
:104970000843604310BD002010BD0846604310BDD1
:10498000C80FC018013810BD18B4044B5B6AFC4650
:10499000019308BD24DF714F00100000000B0020C0
:1049A00018B4044BDB6DFC46019308BD5CDF7D5001
:1049B00000100000000B0020C94211D300B54900CF
:1049C0004908002200F018F8002904D400224042CF
:1049D0008A41114600BD80210906002000BD00006B
:1049E00018B4044BDB6EFC46019308BD6CDF7F4FAF
:1049F00000100000000B002018B4044B9B6FFC4615
:104A0000019308BD78DF9B4F00100000000B0020D1
:104A100018B4044BDB6FFC46019308BD7CDF0950E2
:104A200000100000000B0020132370B51D78012D2D
:104A300019D014DD1F48FFF7D7FA06001E48FFF70C
:104A4000D3FA1E4C80223100200000F06FFC022DB2
:104A50002DD01B48FFF7C0FA1A4B186070BD1A4BD7
:104A6000164CA364F5E7184B144C23606360A360F5
:104A7000E36023616361A361E36123626362A36214
:104A8000E36223636363A363E36323646364A364F4
:104A9000E36423656365A365E36523666366A366D4
:104AA000E36623676367A367E367A364D1E7064B05
:104AB000A364CEE75344000053460000000B0020DF
:104AC0004C330000F4AA0120CD4A001007B560461F
:104AD00001880A0A0230DF2AFAD1C9B2820804D357
:104AE000028840880004104300E00068014A5050EA
:104AF000039007BD000B00200FB403BC0CBCF0B545
:104B00000124E407634000E0F0B50C0DCF0F661EF2
:104B10003605891B640503D3C943404200D30131E4
:104B2000640D03D0661CF60A07D0E41B00207F004A
:104B3000791C89078912803C24031D0DDF0F6E1E2E
:104B400036059B1B6D0503D3DB43524200D3013373
:104B50006D0D03D06E1CF60A07D0ED1B00227F00FE
:104B60007B1C9B079B12803D2D032F1B661B58D47B
:104B7000A446202E46DA20371400BC401D00BD405C
:104B8000F24033412A4380185941CB0F05D0C94325
:104B9000C043002264425041514162464D0D28D12C
:104BA0000D0D07D100281FD0241940414941013A79
:104BB0000D0DF9D0640006D3013000D30131002C73
:104BC00001D140084000013A0BD4941CE40A04D1FE
:104BD00012051144DB071944F0BDD907204B1943D6
:104BE00000E0D9070020F0BD0029DDD1002CDBD189
:104BF000F0BD0132C6074008CD0728434908002E02
:104C0000E1D0D9E73C2E29DA203E40371400BC40E1
:104C100000D00124F24014431A00BB401C43D317B8
:104C2000ACE7AC46202F08DA20360400B4400D0073
:104C3000B540F84039412843A5E73C2F0CDA203F26
:104C400040360400B44000D00124F840044308007A
:104C5000B1400C43C117EAE710001900002494E7A3
:104C60000000F07FF0B50C0D661E3605891BE60AC4
:104C70006405640D02D0651CED0A04D000200121FA
:104C80000905803C2403A4461C0D671E3F05DB1B61
:104C9000E70A6405640D02D0651CED0A04D0002209
:104CA00001231B05803C24037740644497B484B2FD
:104CB00096B27443070C7E43150C6F4380B2684371
:104CC000361802D3012000043F183004350C0019B7
:104CD0007D41844688B29AB250430C0C62431F0C4B
:104CE0007C438EB27E43921902D301263604A41966
:104CF0001604170C3618674101BC81B29AB25143B1
:104D0000040C62431B0C5C4380B25843121802D35C
:104D10000120000424181004130C401863412D18BE
:104D20005E410020474106BC88B293B258430C0C48
:104D30006343120C544389B251435B1802D30121DF
:104D40000904641819041A0C091862416D185641B7
:104D50000020474118BCF902720D1143F0026A0DA0
:104D60001043ED020A0D03D16D1940414941013B49
:104D7000124E9B1B7600B3420ED26D0007D301305A
:104D8000002671416646354301D1400840001B05AD
:104D9000C918E4072144F0BD0BDA013306D1013014
:104DA00004D101314F0D01D04908F2E7E10700209D
:104DB000F0BD013631050020EBE70000FF030000E5
:104DC000F0B51C0D671E3F05DB1BE70A6405640D8B
:104DD00002D0661CF60A04D0002201231B05803C89
:104DE0002403D0252D060026F6432E661E096E6686
:104DF000CE0FF619B44649004F0D02D07E1CF60ABC
:104E000003D000200021403F3F033E1BB600B444C6
:104E1000013F7F05C91B49082E6F013676089C02A9
:104E2000950D25437543ED137543AD1301356D1095
:104E3000F603761B0CB4CC02450D2C43A2B2B3B2E0
:104E40005A43270C7B43350C6F43A4B26C431B19A8
:104E500002D3012424043F191C041D0CA4187D4115
:104E600024196D41009A91B2ACB26143170C7C4396
:104E70002B0C5F4392B25A43A41802D301221204AE
:104E8000BF182204230C52187B41019C6C431B1950
:104E9000520ED9010A434401A01A81B2B2B2514361
:104EA00003145A43360C734387B27743D617D2198B
:104EB00000277E4136049B191704160C7F185E41AB
:104EC0007316ED18F301002680337541A90F06D142
:104ED0006400690AE8055B0A184309D22FE004223E
:104EE000944480337541A90AA8059B0A184326D328
:104EF000404149412404009A019B0D005543641B25
:104F00004343E41A95B286B27543170C7E43030CF3
:104F10005F4392B25A43B61802D301221204BF185B
:104F20003204330C52197B4152429C41002C02D472
:104F30000022013051414008CA071043490802B01D
:104F40006246D7079210084BD218084B9A4203D2F8
:104F500012058918C919F0BD0020002A01DC3900AA
:104F6000F0BD01331905F5E7FD030000FE07000061
:104F7000002200B5203200F010F8080000BD002229
:104F800000B500F00CF8CA179A4200D100BDD84312
:104F90000121C907414000BD00220B150AD410B5FC
:104FA000944600F0A7F81414013400DA0021CB175E
:104FB000144C20470020002170476244343A0CD43E
:104FC0000C2A07DA04009140904052422032D4402B
:104FD000214310BDD843D94310BD203207D40C461D
:104FE0009440524220321141D040204310BD08006D
:104FF000C917203203D452422032104110BD18008C
:10500000190010BDBB4F00104A00520D144BD21AAC
:1050100013DDFF2A1EDAD205CB0FDB071A43C300CC
:10502000400F0903490A084310435B0001D301D034
:10503000013070474308FBD2704702D0C80FC00749
:1050400070470A0312130132F8D1420F072AF5D133
:10505000012200E0FF22C80F00028018C00570473F
:105060008003000000210A00002104E000210A0062
:10507000C11704E00022002306E0C0460022CB173F
:1050800058405940C01A994130B5184CA21A00290D
:1050900003D1010010D00020203A4C1512D104D2C7
:1050A000013A001849414C0DFAD3114CA24204D2E6
:1050B00012058918DB07C91830BDD243520D0020F4
:1050C0000021F5E703D4013A00184941FBD50B3222
:1050D0004405C00A4D052843C90A640003D00024D2
:1050E00060416141E1E7E0D34408F8E732040000A1
:1050F000FE0700000A0DCC0F531E1B05C91A5205EE
:1051000003D3C943404200D30131520D03D0531C95
:10511000DB0A07D0121B00206400611C890789127A
:10512000803A1203014BD21A70470000FF030000BF
:1051300051434343C9188C46110C83B24B4310B4FE
:10514000040C614392B280B2504362431C041B0CB6
:10515000001910BC59411304120CC018514161448C
:10516000704700004840414048400E4B5B6818477C
:105170000C4B1B6818470C4A936F9B0802D2094BD3
:10518000DB681847F0B5146E556E576F166FFFF752
:10519000F6FF054A1466556657671667F0BD014B62
:1051A0009B681847000C0020000000D007B548405D
:1051B0004140484001E0C04607B54200120E03D00E
:1051C000FF2A03D1420218D8C00DC0054A00120EB2
:1051D00003D0FF2A03D14A020FD8C90DC905012205
:1051E000414005D4414001D5814207BD884207BDF9
:1051F0000143491801D0C043001807BD00B5FFF7AF
:10520000DBFF01D9002000BD012000BD01231B06EA
:105210004200D21804D84A00D21801D800207047A2
:1052200001207047491A002808D10846704700003D
:10523000C10FC90700D54042002817D0F44603B477
:105240000B4B1B68984706BC81409E38404280311A
:1052500007D20B0607D04900490AC005104308438E
:1052600060470130F8E7490A8902F5E77047000016
:10527000F4AA0120014B5B6A18470000000C0020D3
:10528000132310B512481C78FEF7AEFE0100012C66
:105290000AD003DD80220F4800F048F80E48FEF7E0
:1052A0009BFE0E4B186010BD0A4C5422200000F0EB
:1052B0003DF80B4B6365A365E36523666366A366F0
:1052C000E36623676367A367E3672362E361E5E758
:1052D00053460000000C00204C330000F4AA0120CB
:1052E000E552001007B5604601880A0A0230DF2A3D
:1052F000FAD1C9B2820804D302884088000410435E
:1053000000E00068014A5050039007BD000C0020E7
:1053100001480421014B184740020020F93F0010CA
:10532000014B1B681847000040020020014B5B68DE
:1053300018470000400200209A4200D2885470476B
:105340007047C046F8B55746DE464E464546E0B57E
:1053500099460A9B07009A460D9B884693460B9CEC
:105360009B073BD10C9B9C423DD21E1B0B9415000E
:105370000C005E442A004B46013521002020B8472E
:10538000B542F7D1A0460B9C002C20D045463619DB
:105390005346321B013C185D29004B46B847002C90
:1053A000F6D12B00350098460D9B9B070FD55B4629
:1053B000EC1A0C9BA3420AD9464698462A004B4653
:1053C000310020200134B84701354445F6D3280088
:1053D000F0BCBB46B246A946A046F8BD1600150073
:1053E000002CD3D1E0E71600002CCFD11500EEE75A
:1053F000F0B54F464646D646C0B584B098460EAB8B
:105400001B7894469946129B0D9C109F119E9A07FB
:1054100025D4002E65D1BC4221D201221A409246E9
:10542000202C00D1E9E00C9A551E302202E0202CFD
:1054300000D17BE001342A55A742F8D85246002A11
:105440000DD0B4420BD20C9A551E3022202C02D122
:1054500071E0202C2DD001342A55B442F9D1DA065E
:105460003CD55A052ED4002C28D10F9A102A00D1F1
:10547000B6E0022A00D1BCE030220C9C227001244C
:105480004A46002A65D15A0700D499E02B220C9D88
:105490002A55013403930C9B6246009302964346BF
:1054A0000194FFF74FFF04B0E0BCBA46B146A846EE
:1054B000F0BD2024DA06EDD55A0503D4A74266D004
:1054C000B44264D00F9A102A71D0022A57D0202CEF
:1054D000E0D02200013430250C9FBD54202CD9D0BF
:1054E000CEE7012215001D40AA461A4236D04A4690
:1054F000002A4AD10C321A4247D1BC42A1D2202CF8
:1055000091D1202E17D82024DA06C3D55A051BD4F2
:10551000202F01D0202ED5D11F220F9D102D6FD00E
:10552000022DD8D162250C9FBD54D0E75246002AE7
:1055300079D0202EBDD92024DA06ABD55A0503D464
:10554000202FE9D0202EE7D00F9A102AA2D12024B4
:10555000A0E72D220C9D2A5501349BE7BC4200D3C5
:105560007DE7202C00D05EE7DA06F0D55A05EED4B0
:10557000202F62D0202EEAD134001F22CDE7202C2C
:1055800000D187E722000134CCE7013EB5E7621E77
:10559000012CC2D10F9A102A00D06AE79A063BD597
:1055A00058220C9C2270283A6270022468E79A06FE
:1055B0000ED4202CCBD078220C9D2A55013486E7BE
:1055C0001A0700D466E720220C9D2A55013461E7B2
:1055D000202CBCD058250C9A12191570013476E78E
:1055E0009A0608D558220C9C227030226270022440
:1055F00046E76032F7E77822F5E7002A83D1B3E780
:10560000A21E013C9D0603D478250C9FBD5460E783
:1056100058250C9FBD545CE778220C9C2270483AB8
:10562000627002242CE7DA0600D433E75A058BD4E3
:10563000202F00D044E71F226FE73C001F226CE7B9
:1056400010B5002800D110BD01F040FCFBE7C046BA
:105650000B0010B5002802D049681B68984710BDA0
:10566000F0B557464E464546DE46E0B599B082460F
:10567000894690460893229A239B10001900FFF751
:1056800036F9002800D0CDE0229823990122D94B89
:105690005242FFF727F9002800D0C3E0229823994F
:1056A0000122D54B5242FFF707F9002800D0B9E09C
:1056B0002298239900220023FFF7FEF8002800D04B
:1056C000F1E1229E239F8023269ADB001A400D924F
:1056D000269A1A4201D1062324938023269A1B017D
:1056E0001A403B0093460996334300D0B3E0002AAA
:1056F00000D0C2E1002300240A930B940023042568
:105700000993259B0024AB4200D95C1B0223269AF7
:105710001A400C92269A134203D06B426B415B42B3
:105720001C40099B002B07D00A9A0B9B30003900C4
:10573000FFF759F806000F00229823990022002352
:10574000FFF7BAF8002803D0802109067B181F0054
:10575000269AAA4B009601971340089E0493249B17
:1057600003940293424633004946504600F0AAF99A
:105770000400002D67D02020269A494602401300DD
:105780005A4253415B42621C18400A923300220085
:105790004530D047099A6F1ED317D4185C40D30FF9
:1057A0009B46002501E0202D13D008AA94461F2314
:1057B000200063440A2101355E19FEF7C7FD303130
:1057C000317020000A21FEF7C1FD26000400092ED9
:1057D000E9D805230693002304930A3303935B4619
:1057E000089E029310AB0A9A009349463300504634
:1057F00005970195FFF7FCFD0C9A0400002A22D0C2
:105800004246851A259AAA421DD9B0465746160027
:1058100022004346494620200135B8470134AE42B4
:10582000F6D810E0269B42460493259B49460393F5
:10583000249B50460293229B239C00930194089B37
:1058400000F040F90400200019B0F0BCBB46B2469D
:10585000A946A046F0BD6A4B78009C46400D6044C6
:10586000FFF756F8674A684BFEF7DBFF674A684B5D
:10587000FEF7B0FF674A3B031B0B1A4304000D0001
:1058800009981100644B0022FEF79BFF634A644BAA
:10589000FEF7C7FF02000B0020002900FEF79AFF69
:1058A000FFF74EF80990FFF733F85E4A5E4B0400AD
:1058B0000D00FEF7B6FF00225C4BFEF78BFFFFF7F3
:1058C0003FF85B4A5B4B29000C902000FEF7A9FFD4
:1058D00004000C980D00FFF71BF8574A574BFEF7D2
:1058E000A0FF02000B0020002900FEF76AFF040061
:1058F0000D0002000B000A940B95FEF792FF0400C6
:105900000D000A980B9902000B00FEF763FF0022BE
:105910000E900F914A4B20002900FEF764FF0022F1
:10592000484BFEF757FF02000B0020002900FEF74E
:105930005AFF0022444BFEF74DFF02000B002000EF
:105940002900FEF750FF0A9A0B9B0D0080210400EE
:10595000C9050020FEF735FF02000B0020002900DA
:10596000FEF738FF02000B000E980F99FEF73BFF81
:105970000022284BFEF72EFF344B0C9C9C466444BF
:1059800023050022FEF74DFF04000D0002000B006E
:10599000300039000A940B95FEF78EFF00285DD188
:1059A00023002A00C625099963318D42AD4159462D
:1059B0006D420435002900D1A3E6134363D03000C3
:1059C0003900234A234BFEF785FF002807D0002229
:1059D00030003900204BFEF76FFF002853D1249B85
:1059E000002B00D18DE60D9B5A1E9341249AD31AA9
:1059F000249386E6FFFFEF7FFFFFEFFFFFF7FFFF38
:105A000001FCFFFFFB799F501344D33FB3C8608B69
:105A1000288AC63F0000F03F0000F83F61436F63F3
:105A2000A787D23F71A379094F930A400000E03F56
:105A30001655B5BBB16B0240EF39FAFE422EE63F78
:105A400000002C400000244000001840FF0300002C
:105A50002D431CEBE2361A3F80842E41099B002225
:105A6000013B09932000164B2900FEF7BCFE0A00FB
:105A7000010003000A910B9294E7002300240A938B
:105A80000B9400230993249A099B9A4214DDD31A9C
:105A9000013B24938023269ADB001A430023002530
:105AA000269209932DE6802212069446229B1E0020
:105AB000239B63441F0006E600232493EAE7C046C5
:105AC00000002440F0B54546DE464E465746E0B558
:105AD00095B08B46904699461E9A1F9B0A901900D6
